S01900004763634170706C69636174696F6E3134382E73726563ED
S11300000C942A000C9434000C9434000C943400A6
S11300100C9434000C9434000C9434000C9434008C
S11300200C9434000C9434000C9434000C9434007C
S11300300C9434000C9434000C9434000C9434006C
S11300400C9434000C9434000C9434000C9434005C
S11300500C94340011241FBECFE5D8E0DEBFCDBF21
S11300600E9446000C9464000C940000806687B9DA
S11300708AE18A95F1F700C0369A349BFECF349A10
S113008085B108955D9BFECF8CB908951ABA1BBA49
S113009011BA12BA1BB888E08AB986E880BD10BCD0
S11300A093E399B990E697B986B92FEF80E792E088
S11300B0215080409040E1F700C0000080E00E94A1
S10F00C036000E944200F1CFF894FFCFFC
S9030000FC
